:020000040800F2
:100000000050002021210008391F0008411F00086E
:10001000491F0008511F0008591F00080000000078
:10002000000000000000000000000000611F000848
:100030006D1F000800000000791F0008851F0008E0
:100040006921000869210008692100086921000868
:100050006921000869210008692100086921000858
:100060006921000869210008692100086921000848
:100070006921000869210008692100086921000838
:100080006921000869210008692100086921000828
:100090006921000869210008692100086921000818
:1000A0006921000869210008692100086921000808
:1000B00069210008692100086921000869210008F8
:1000C00069210008692100086921000869210008E8
:1000D00069210008692100086921000869210008D8
:1000E000692100086921000869210008000000005A
:1000F0000000000000000000000000000000000000
:0C01000000000000000000005FF808F1A3
:1001100010B5054C237833B9044B13B10448AFF341
:1001200000800123237010BDEC01002000000000BE
:100130001C61000808B5034B1BB103490348AFF32A
:10014000008008BD00000000F00100201C610008D4
:10015000034613F8012B002AFBD1181A0138704707
:1001600081F0004102E000BF83F0004330B54FEA68
:1001700041044FEA430594EA050F08BF90EA020FD5
:100180001FBF54EA000C55EA020C7FEA645C7FEA68
:10019000655C00F0E2804FEA5454D4EB5555B8BF8B
:1001A0006D420CDD2C4480EA020281EA030382EAFC
:1001B000000083EA010180EA020281EA0303362D8E
:1001C00088BF30BD11F0004F4FEA01314FF4801C61
:1001D0004CEA113102D0404261EB410113F0004F73
:1001E0004FEA03334CEA133302D0524263EB43032A
:1001F00094EA050F00F0A780A4F10104D5F1200EC8
:100200000DDB02FA0EFC22FA05F2801841F1000122
:1002100003FA0EF2801843FA05F359410EE0A5F1F6
:1002200020050EF1200E012A03FA0EFC28BF4CF027
:10023000020C43FA05F3C01851EBE37101F00045DD
:1002400007D54FF0000EDCF1000C7EEB00006EEBEA
:100250000101B1F5801F1BD3B1F5001F0CD3490874
:100260005FEA30004FEA3C0C04F101044FEA4452CB
:1002700012F5800F80F09A80BCF1004F08BF5FEA52
:10028000500C50F1000041EB045141EA050130BD32
:100290005FEA4C0C404141EB0101013C28BFB1F544
:1002A000801FE9D291F0000F04BF01460020B1FA8F
:1002B00081F308BF2033A3F10B03B3F120020CDA62
:1002C0000C3208DD02F1140CC2F10C0201FA0CF040
:1002D00021FA02F10CE002F11402D8BFC2F1200CA5
:1002E00001FA02F120FA0CFCDCBF41EA0C0190405B
:1002F000E41AA2BF01EB0451294330BD6FEA0404A4
:100300001F3C1CDA0C340EDC04F11404C4F120028E
:1003100020FA04F001FA02F340EA030021FA04F3A0
:1003200045EA030130BDC4F10C04C4F1200220FAF7
:1003300002F001FA04F340EA0300294630BD21FA35
:1003400004F0294630BD94F0000F83F4801306BFFB
:1003500081F480110134013D4EE77FEA645C18BFEF
:100360007FEA655C29D094EA050F08BF90EA020F86
:1003700005D054EA000C04BF1946104630BD91EA7E
:10038000030F1EBF0021002030BD5FEA545C05D181
:100390004000494128BF41F0004130BD14F58004C0
:1003A0003CBF01F5801130BD01F0004545F0FE4134
:1003B00041F470014FF0000030BD7FEA645C1ABF69
:1003C000194610467FEA655C1CBF0B46024650EAA0
:1003D000013406BF52EA033591EA030F41F40021CC
:1003E00030BD00BF90F0000F04BF0021704730B552
:1003F0004FF4806404F132044FF000054FF0000127
:1004000050E700BF90F0000F04BF0021704730B5E7
:100410004FF4806404F1320410F0004548BF4042BC
:100420004FF000013EE700BF42004FEAE2014FEA11
:1004300031014FEA02701FBF12F07F4393F07F4FEC
:1004400081F06051704732F07F4208BF704793F0EF
:100450007F4F04BF41F40021704730B54FF4607402
:1004600001F0004521F000411CE700BF50EA010205
:1004700008BF704730B54FF000050AE050EA0102AE
:1004800008BF704730B511F0004502D5404261EB1E
:1004900041014FF4806404F132045FEA915C3FF45F
:1004A000D8AE4FF003025FEADC0C18BF03325FEAFC
:1004B000DC0C18BF033202EBDC02C2F1200300FAAD
:1004C00003FC20FA02F001FA03FE40EA0E0021FAD2
:1004D00002F11444BDE600BF70B54FF0FF0C4CF4C0
:1004E000E06C1CEA11541DBF1CEA135594EA0C0F72
:1004F00095EA0C0F00F0DEF82C4481EA030621EAAD
:100500004C5123EA4C5350EA013518BF52EA0335E7
:1005100041F4801143F4801338D0A0FB02CE4FF099
:100520000005E1FB02E506F00042E0FB03E54FF0C9
:100530000006E1FB03569CF0000F18BF4EF0010EC1
:10054000A4F1FF04B6F5007F64F5407404D25FEABD
:100550004E0E6D4146EB060642EAC62141EA555170
:100560004FEAC52040EA5E504FEACE2EB4F1FD0CB2
:1005700088BFBCF5E06F1ED8BEF1004F08BF5FEA30
:10058000500E50F1000041EB045170BD06F00046E2
:1005900046EA010140EA020081EA0301B4EB5C048F
:1005A000C2BFD4EB0C0541EA045170BD41F4801187
:1005B0004FF0000E013C00F3AB8014F1360FDEBFAC
:1005C000002001F0004170BDC4F10004203C35DA88
:1005D0000C341BDC04F11404C4F1200500FA05F30B
:1005E00020FA04F001FA05F240EA020001F00042AC
:1005F00021F0004110EBD37021FA04F642EB060122
:100600005EEA430E08BF20EAD37070BDC4F10C044B
:10061000C4F1200500FA04F320FA05F001FA04F20F
:1006200040EA020001F0004110EBD37041F10001FB
:100630005EEA430E08BF20EAD37070BDC4F1200506
:1006400000FA05F24EEA020E20FA04F301FA05F26E
:1006500043EA020321FA04F001F0004121FA04F216
:1006600020EA020000EBD3705EEA430E08BF20EAE6
:10067000D37070BD94F0000F0FD101F00046400020
:1006800041EB010111F4801F08BF013CF7D041EAA2
:10069000060195F0000F18BF704703F000465200A6
:1006A00043EB030313F4801F08BF013DF7D043EA77
:1006B0000603704794EA0C0F0CEA135518BF95EA2D
:1006C0000C0F0CD050EA410618BF52EA4306D1D1B4
:1006D00081EA030101F000414FF0000070BD50EAD3
:1006E000410606BF1046194652EA430619D094EA5D
:1006F0000C0F02D150EA013613D195EA0C0F05D147
:1007000052EA03361CBF104619460AD181EA03019A
:1007100001F0004141F0FE4141F470014FF0000052
:1007200070BD41F0FE4141F4780170BD70B54FF0ED
:10073000FF0C4CF4E06C1CEA11541DBF1CEA13556D
:1007400094EA0C0F95EA0C0F00F0A7F8A4EB05044F
:1007500081EA030E52EA03354FEA013100F0888046
:100760004FEA03334FF0805545EA131343EA12630F
:100770004FEA022245EA111545EA10654FEA0026C4
:100780000EF000419D4208BF964244F1FD0404F57D
:10079000407402D25B084FEA3202B61A65EB0305D9
:1007A0005B084FEA32024FF480104FF4002CB6EB96
:1007B000020E75EB030E22BFB61A754640EA0C0016
:1007C0005B084FEA3202B6EB020E75EB030E22BF56
:1007D000B61A754640EA5C005B084FEA3202B6EB97
:1007E000020E75EB030E22BFB61A754640EA9C0056
:1007F0005B084FEA3202B6EB020E75EB030E22BF26
:10080000B61A754640EADC0055EA060E18D04FEAE3
:10081000051545EA16754FEA06164FEAC30343EA83
:1008200052734FEAC2025FEA1C1CC0D111F4801F50
:100830000BD141EA00014FF000004FF0004CB6E749
:1008400011F4801F04BF01430020B4F1FD0C88BFE8
:10085000BCF5E06F3FF6AFAEB5EB030C04BFB6EBF3
:10086000020C5FEA500C50F1000041EB045170BDE6
:100870000EF0004E4EEA113114EB5C04C2BFD4EB13
:100880000C0541EA045170BD41F480114FF0000E97
:10089000013C90E645EA060E8DE60CEA135594EA13
:1008A0000C0F08BF95EA0C0F3FF43BAF94EA0C0F16
:1008B0000AD150EA01347FF434AF95EA0C0F7FF48B
:1008C00025AF104619462CE795EA0C0F06D152EADF
:1008D00003353FF4FDAE1046194622E750EA4106C3
:1008E00018BF52EA43067FF4C5AE50EA41047FF4D4
:1008F0000DAF52EA43057FF4EBAE12E74FF0FF3C39
:1009000006E000BF4FF0010C02E000BF4FF0010C09
:100910004DF804CD4FEA410C7FEA6C5C4FEA430C82
:1009200018BF7FEA6C5C1BD001B050EA410C0CBFD1
:1009300052EA430C91EA030F02BF90EA020F002033
:10094000704710F1000F91EA030F58BF994208BF9A
:1009500090422CBFD8176FEAE37040F00100704757
:100960004FEA410C7FEA6C5C02D150EA013C07D1AE
:100970004FEA430C7FEA6C5CD6D152EA033CD3D0F9
:100980005DF8040B704700BF8446104662468C46F3
:100990001946634600E000BF01B5FFF7B7FF002826
:1009A00048BF10F1000F01BD4DF808EDFFF7F4FF4F
:1009B0000CBF012000205DF808FB00BF4DF808EDDA
:1009C000FFF7EAFF34BF012000205DF808FB00BFFD
:1009D0004DF808EDFFF7E0FF94BF012000205DF81F
:1009E00008FB00BF4DF808EDFFF7CEFF94BF0120D4
:1009F00000205DF808FB00BF4DF808EDFFF7C4FFCD
:100A000034BF012000205DF808FB00BF4FEA410C15
:100A10007FEA6C5C02D150EA013C0AD14FEA430CF8
:100A20007FEA6C5C02D152EA033C02D14FF0000035
:100A300070474FF0010070474FEA410212F5001273
:100A400015D211D56FF47873B3EB625212D94FEA15
:100A5000C12343F0004343EA505311F0004F23FAFF
:100A600002F018BF404270474FF00000704750EA54
:100A7000013005D111F0004008BF6FF00040704711
:100A80004FF00000704700BF80F0004002E000BF60
:100A900081F0004142001FBF5FEA410392EA030F69
:100AA0007FEA226C7FEA236C6AD04FEA1262D2EBB3
:100AB0001363C1BFD218414048404140B8BF5B42B8
:100AC000192B88BF704710F0004F40F4000020F051
:100AD0007F4018BF404211F0004F41F4000121F067
:100AE0007F4118BF494292EA030F3FD0A2F10102B1
:100AF00041FA03FC10EB0C00C3F1200301FA03F1EF
:100B000000F0004302D5494260EB4000B0F5000F11
:100B100013D3B0F1807F06D340084FEA310102F1D0
:100B20000102FE2A51D2B1F1004F40EBC25008BF82
:100B300020F0010040EA03007047490040EB00004C
:100B4000013A28BFB0F5000FEDD2B0FA80FCACF14D
:100B5000080CB2EB0C0200FA0CF0AABF00EBC2507A
:100B600052421843BCBFD0401843704792F0000F68
:100B700081F4000106BF80F400000132013BB5E7BB
:100B80004FEA41037FEA226C18BF7FEA236C21D031
:100B900092EA030F04D092F0000F08BF0846704796
:100BA00090EA010F1CBF0020704712F07F4F04D164
:100BB000400028BF40F00040704712F100723CBF77
:100BC00000F50000704700F0004343F0FE4040F4A1
:100BD000000070477FEA226216BF08467FEA23635F
:100BE0000146420206BF5FEA412390EA010F40F44A
:100BF000800070474FF0000304E000BF10F0004396
:100C000048BF40425FEA000C08BF704743F096437C
:100C100001464FF000001CE050EA010208BF704797
:100C20004FF000030AE000BF50EA010208BF70471E
:100C300011F0004302D5404261EB41015FEA010C33
:100C400002BF84460146002043F0B64308BFA3F12B
:100C50008053A3F50003BCFA8CF2083AA3EBC2530D
:100C600010DB01FA02FC634400FA02FCC2F120022C
:100C7000BCF1004F20FA02F243EB020008BF20F063
:100C80000100704702F1200201FA02FCC2F12002C9
:100C900050EA4C0021FA02F243EB020008BF20EABE
:100CA000DC7070474FF0FF0C1CEAD0521EBF1CEAEC
:100CB000D15392EA0C0F93EA0C0F6FD01A4480EADA
:100CC000010C400218BF5FEA41211ED04FF00063C3
:100CD00043EA501043EA5111A0FB01310CF00040EF
:100CE000B1F5000F3EBF490041EAD3715B0040EA15
:100CF000010062F17F02FD2A1DD8B3F1004F40EBE5
:100D0000C25008BF20F00100704790F0000F0CF0B7
:100D1000004C08BF49024CEA502040EA51207F3A7B
:100D2000C2BFD2F1FF0340EAC250704740F4000056
:100D30004FF00003013A5DDC12F1190FDCBF00F047
:100D400000407047C2F10002410021FA02F1C2F1F5
:100D5000200200FA02FC5FEA310040F1000053EA91
:100D60004C0308BF20EADC70704792F0000F00F0DF
:100D7000004C02BF400010F4000F013AF9D040EAE5
:100D80000C0093F0000F01F0004C02BF490011F479
:100D9000000F013BF9D041EA0C018FE70CEAD15377
:100DA00092EA0C0F18BF93EA0C0F0AD030F0004CF7
:100DB00018BF31F0004CD8D180EA010000F00040AB
:100DC000704790F0000F17BF90F0004F084691F069
:100DD000000F91F0004F14D092EA0C0F01D14202A3
:100DE0000FD193EA0C0F03D14B0218BF084608D16C
:100DF00080EA010000F0004040F0FE4040F40000B6
:100E0000704740F0FE4040F4400070474FF0FF0C48
:100E10001CEAD0521EBF1CEAD15392EA0C0F93EA8F
:100E20000C0F69D0A2EB030280EA010C49024FEAE1
:100E3000402037D04FF0805343EA111143EA10139A
:100E40000CF000408B4238BF5B0042F17D024FF452
:100E5000000C8B4224BF5B1A40EA0C00B3EB510F2D
:100E600024BFA3EB510340EA5C00B3EB910F24BF16
:100E7000A3EB910340EA9C00B3EBD10F24BFA3EB9B
:100E8000D10340EADC001B0118BF5FEA1C1CE0D163
:100E9000FD2A3FF650AF8B4240EBC25008BF20F016
:100EA000010070470CF0004C4CEA50207F32C2BF6A
:100EB000D2F1FF0340EAC250704740F400004FF007
:100EC0000003013A37E792F0000F00F0004C02BF38
:100ED000400010F4000F013AF9D040EA0C0093F002
:100EE000000F01F0004C02BF490011F4000F013B5C
:100EF000F9D041EA0C0195E70CEAD15392EA0C0FC4
:100F000008D142027FF47DAF93EA0C0F7FF470AFFB
:100F1000084676E793EA0C0F04D14B023FF44CAF3E
:100F200008466EE730F0004C18BF31F0004CCAD1D3
:100F300030F000427FF45CAF31F000437FF43CAF0F
:100F40005FE700BF80B584B000AF03460A46FB717F
:100F50001346BB80BB881B0A9BB2DBB23B73BB88CA
:100F6000DBB27B7307F10C02F9790223802000F0D9
:100F70005DFC0346FB73FB7B002B14BF01230023A6
:100F8000DBB218461037BD4680BD80B584B000AFD7
:100F90000346FB710023BB8107F10C02F9790223A0
:100FA000802000F088FC0346FB73FB7B002B02D003
:100FB0004DF6AD6308E03B7B1BB21B021AB27B7B94
:100FC0001BB213431BB29BB218461037BD4680BDFF
:100FD00080B584B000AF7860802000F00BFC034641
:100FE000002B22D10A2001F023F94FF40041002008
:100FF000FFF7A8FF0A2001F01BF99523FB81FB896D
:1010000019460520FFF79EFF052001F011F944F273
:1010100027110020FFF796FF0A2001F009F90020B0
:10102000FFF7B3FF0346BB8100E000BF1037BD46AA
:1010300080BD000080B582B000AF0220FFF7A5FFA1
:101040000346FB80FB884DF6AD62934204D0FB88DB
:101050004FF6FF72934202D14FF000030FE0FB887E
:101060001846FFF7C7FD034607491846FFF71AFE63
:1010700003463B6005493868FFF714FE03461846EF
:101080000837BD4680BD00BF0AD7A33A840D7F3F15
:1010900080B582B000AF0420FFF777FF0346FB80E6
:1010A000B7F906300C4A934204D0B7F90630B3F1D1
:1010B000FF3F02D14FF000030AE0B7F906301846AF
:1010C000FFF79CFD034605491846FFF7EBFD034675
:1010D00018460837BD4680BDADDEFFFF6F12833A6C
:1010E00080B582B000AF0320FFF74FFF0346FB80BF
:1010F000FB884DF6AD62934204D0FB884FF6FF7239
:10110000934202D14FF000030EE0FB881846FFF730
:1011100071FD034606491846FFF7C4FD034605491D
:101120001846FFF7BFFD034618460837BD4680BD89
:101130006F12833A0000C84180B588B000AF07F154
:10114000100300221A605A609A60DA601E4B9B6995
:101150001D4A43F0200393611B4B9B6903F020035E
:10116000FB60FB68184B9B69174A43F004039361CB
:10117000154B9B6903F00403BB60BB68124B9B6972
:10118000114A43F0080393610F4B9B6903F0080376
:101190007B607B68002240F203410C4801F0EBFACF
:1011A00040F203433B6101237B610023BB610223C7
:1011B000FB6107F110031946044801F041F900BF33
:1011C0002037BD4680BD00BF00100240000C01402A
:1011D000B0B5B0B004AF00F0C9FF00F04DF9FFF7B3
:1011E000ABFF00F0C5FB00F015FD00F0A7F90020F3
:1011F00000F05EFE924B0022029240F2FF720192DA
:101200005A6800921B688F4A0021002000F093FD6D
:10121000802000F0EFFA0346002B40F08480884BDA
:10122000002202924FF4FC6201925A6800921B68FD
:10123000854A0C21002000F07EFD0020FFF7C8FE4B
:101240000220FFF7A2FE0346A7F8AA300520FFF709
:101250009CFE0346A7F8A830B7F8AA2007F154036C
:101260007A49184602F0D2FE754B07F1540100226C
:1012700002924FF6FF7201925A6800921B680A466A
:101280001821002000F057FDB7F8A82007F15403FB
:101290006F49184602F0BAFE694B07F1540100226B
:1012A00002924FF6FF7201925A6800921B680A463A
:1012B0002421002000F03FFDFFF7BCFEC7F8A4008A
:1012C000D7F8A400FFF7B0F802460B4607F1540028
:1012D000604902F09BFE5A4B07F154010022029232
:1012E0004FF4FC6201925A6800921B680A46302152
:1012F000002000F020FD002000F0DAFD4FF0000398
:10130000C7F8A0304FF00003C7F89C304FF000033F
:10131000C7F898304FF00003C7F894304FF000033F
:10132000C7F8AC300FE0464B002202924FF47842EF
:1013300001925A6800921B68474A0C21002000F075
:10134000FAFC00BFFDE7FFF775FEC7F8A000FFF746
:101350009FFEC7F89C00FFF7C3FEC7F894003F4903
:10136000D7F89C00FFF79EFC03463D491846FFF75F
:101370004DFD03461946D7F8AC00FFF78BFB03463B
:10138000C7F8AC30D7F8A000FFF74EF802460B467E
:1013900007F11800334902F039FED7F89C00FFF737
:1013A00043F802460B46381D2F4902F02FFED7F8AE
:1013B0009400FFF739F804460D46D7F8AC00FFF764
:1013C00033F802460B4607F12C00CDE900232246F4
:1013D0002B46264902F01AFE254B07F11801002280
:1013E00002924FF4784201925A6800921B680A46B2
:1013F0001421142000F09FFC1D4B391D0022029285
:101400001F2201925A6800921B680A463C21142050
:1014100000F091FC174B07F12C01002202924FF4CF
:10142000FC6201925A6800921B680A465F210A20FA
:1014300000F081FC642000F0FBFE00BF83E700BFEA
:101440000000002038610008486100086C61000855
:101450007C6100088861000858610008CDCCCC3D53
:1014600000006145946100089C610008A4610008C7
:10147000100000200800002080B590B000AF07F1F8
:10148000180328220021184602F025FE3B1D0022E9
:101490001A605A609A60DA601A610123BB614FF4E6
:1014A0008033FB6100233B620123BB6202237B6329
:1014B0004FF48033BB634FF4E013FB6307F1180371
:1014C000184601F071F90346002B01D000F019F81D
:1014D0000F237B600223BB600023FB604FF480631B
:1014E0003B6100237B613B1D0221184601F0DEFBBE
:1014F0000346002B01D000F004F800BF4037BD4682
:1015000080BD80B400AF72B600BF00BFFDE780B4FD
:1015100085B000AF78607A681346DB0013445B0047
:10152000FB6000BFFB685A1EFA60002BFAD100BFB7
:1015300000BF1437BD4680BC7047000080B586B040
:1015400000AF07F1080300221A605A609A60DA605F
:101550001B4B9B691A4A43F008039361184B9B6924
:1015600003F008037B607B684FF48073BB6011233A
:10157000FB6000233B6103237B6107F108031946ED
:10158000104800F05DFF4FF40073BB6007F10803E3
:1015900019460C4800F054FF01224FF480710948AD
:1015A00001F0E9F801224FF40071064801F0E3F878
:1015B0006420FFF7ACFF00BF1837BD4680BD00BFF9
:1015C00000100240000C014080B500AF01224FF432
:1015D0000071114801F0CFF80520FFF798FF0122B4
:1015E0004FF480710C4801F0C6F80520FFF78FFF1B
:1015F00000224FF40071084801F0BDF80520FFF704
:1016000086FF00224FF48071034801F0B4F80520F2
:10161000FFF77DFF00BF80BD000C014080B500AF2B
:1016200000224FF400710D4801F0A5F80520FFF7E6
:101630006EFF01224FF48071084801F09CF80520EC
:10164000FFF765FF01224FF40071044801F093F8A1
:101650000520FFF75CFF00BF80BD00BF000C01400C
:1016600080B584B000AF0346FB710023FB602BE024
:1016700097F90730002B06DA01224FF40071274852
:1016800001F079F805E000224FF40071234801F0E1
:1016900072F80520FFF73BFF01224FF480711F48CD
:1016A00001F069F80520FFF732FF00224FF4807146
:1016B0001A4801F060F80520FFF729FFFB795B006D
:1016C000FB71FB680133FB60FB68072BD0DD012257
:1016D0004FF40071114801F04EF80520FFF717FF95
:1016E00001224FF480710D4801F045F80520FFF705
:1016F0000EFF4FF40071094801F026F80346FB7213
:1017000000224FF48071054801F035F80520FFF7FD
:10171000FEFEFB7A18461037BD4680BD000C014026
:1017200080B584B000AF0346FB710023FB73012238
:101730004FF400712E4801F01EF80023BB6023E037
:101740000520FFF7E4FE01224FF48071284801F0E4
:1017500012F80520FFF7DBFEFB7B5B00FB734FF409
:101760000071234800F0F0FF0346002B03D0FB7B01
:1017700043F00103FB7300224FF480711C4800F01A
:10178000FAFFBB680133BB60BB68072BD8DDFB7970
:10179000002B06D000224FF40071154800F0EBFF3B
:1017A00005E001224FF40071114800F0E4FF05202C
:1017B000FFF7ADFE01224FF480710D4800F0DBFF12
:1017C0000520FFF7A4FE00224FF48071084800F0C6
:1017D000D2FF0520FFF79BFE01224FF40071044861
:1017E00000F0C9FFFB7B18461037BD4680BD00BF27
:1017F000000C014080B584B000AF0346FB71FFF7D9
:10180000E3FEFB7923F00103DBB21846FFF728FF64
:101810000346FB73FFF702FFFB7B002B14BF012382
:101820000023DBB218461037BD4680BD80B584B0BA
:1018300000AF3A601A460346FB710B46BB71134674
:10184000BB80FFF7C1FEFB7923F00103DBB2184632
:10185000FFF706FF0346002B03D0FFF7DFFE01234F
:1018600025E0BB791846FFF7FBFE0346002B03D0AB
:10187000FFF7D4FE01231AE00023FB8110E0FB896F
:101880003A6813441B781846FFF7EAFE0346002B1C
:1018900003D0FFF7C3FE012309E0FB890133FB817D
:1018A000FA89BB889A42EAD3FFF7B8FE00231846AC
:1018B0001037BD4680BD90B585B000AF3A601A467E
:1018C0000346FB710B46BB711346BB80FFF77CFEE2
:1018D000FB7923F00103DBB21846FFF7C1FE034694
:1018E000002B03D0FFF79AFE01233DE0BB79184699
:1018F000FFF7B6FE0346002B03D0FFF78FFE012350
:1019000032E0FFF761FEFB7943F00103DBB21846DA
:10191000FFF7A6FE0346002B03D0FFF77FFE01234F
:1019200022E00023FB8118E0FA89BB88013B9A4240
:1019300008D1FB893A68D4180020FFF7F1FE03466E
:10194000237007E0FB893A68D4180120FFF7E8FE0E
:1019500003462370FB890133FB81FA89BB889A42D5
:10196000E2D3FFF75BFE002318461437BD4690BD57
:1019700080B500AF174B184A1A60164B4FF48272AD
:101980005A60144B00229A60124B0022DA60114B0D
:1019900000221A610F4B00225A610E4B4FF4007265
:1019A0009A610C4B2822DA610A4B00221A62094B19
:1019B00000225A62074B00229A62064B0A22DA6220
:1019C000044801F0CFFA0346002B01D0FFF799FD40
:1019D00000BF80BD080200200030014080B588B003
:1019E00000AF786007F1100300221A605A609A6015
:1019F000DA607B681B68154A934223D1144B9B69BC
:101A0000134A43F480539361114B9B6903F4805351
:101A1000FB60FB680E4B9B690D4A43F00403936126
:101A20000B4B9B6903F00403BB60BB68A0233B61C5
:101A300002237B610323FB6107F11003194605486C
:101A400000F0FEFC00BF2037BD4680BD00300140E5
:101A5000001002400008014080B500AF00224FF4A2
:101A60008061024800F087FE00BF80BD000C01408D
:101A700080B500AF01224FF48061024800F07BFE88
:101A800000BF80BD000C014080B500AF00220121E5
:101A9000064800F070FE052000F0CAFB012201217B
:101AA000024800F068FE00BF80BD00BF000C01408E
:101AB00080B582B000AF0346FB71002202210748C7
:101AC00000F059FEF91D4FF0FF330122044801F0E8
:101AD000CDFA00BF0837BD4680BD00BF000C0140F5
:101AE0000802002080B582B000AF78603960012222
:101AF0000221074800F03FFE3B689AB24FF0FF33E7
:101B00007968044801F0B2FA00BF0837BD4680BDCD
:101B1000000C01400802002080B584B000AF78605E
:101B20007B685A1C7A601B78FB7334E07B685A1C14
:101B30007A601B78FB72FB7A1846FFF7B9FF7B6867
:101B40005A1C7A601B78BB72BB7A9BB203F080038D
:101B5000BB81BB7A03F07F03BB72BB7A002B08D03A
:101B6000BB7A19467868FFF7BDFFBB7A7A681344E1
:101B70007B60BB89002B0ED07B685A1C7A601B7877
:101B8000BB81BB89FF2B02D14FF4FA73BB81BB89A8
:101B9000184600F04DFBFB7B5A1EFA73002BC5D193
:101BA00000BF00BF1037BD4680BD90B585B000AF07
:101BB0000446084611461A462346FB710346BB718C
:101BC0000B467B7113463B712A20FFF771FF002300
:101BD0003B73FB797B730023BB737B79FB7307F14A
:101BE0000C0304211846FFF77DFF2B20FFF760FF51
:101BF000BB797B733B79FB7307F10C030421184617
:101C0000FFF770FF2C20FFF753FF00BF1437BD46CE
:101C100090BD000080B500AFFFF71EFFFFF734FF57
:101C20000648FFF779FF0648FFF776FF0548FFF7FC
:101C300073FFFFF71DFF00BF80BD00BF4C8B000886
:101C4000888B0008988B000882B090B589B000AFEF
:101C50007B630346FB800B46BB801346FB70FB880F
:101C6000D8B2BB88D9B2FB88DAB297F834301344C3
:101C7000DBB2013BDCB2BB88DAB297F835301344F3
:101C8000DBB2013BDBB22246FFF78FFF0023FB6193
:101C900043E0BA6BFB78203B97F8351001FB03F368
:101CA0001946FB690B445B0013441B887B610023CE
:101CB000BB6129E07A69BB6902FA03F303F40043CC
:101CC000002B0ED0BB8F1B0A9BB2DBB23B74BB8FC9
:101CD000DBB27B7407F1100302211846FFF702FF05
:101CE0000FE0B7F840301B0A9BB2DBB23B73B7F88A
:101CF0004030DBB27B7307F10C0302211846FFF77B
:101D0000F1FEBB690133BB6197F834301A46BB69F9
:101D10009342CFD3FB690133FB6197F835301A4604
:101D2000FB699342B5D300BF00BF2437BD46BDE871
:101D3000904002B0704782B080B586B004AF3A6080
:101D40007B610346FB800B46BB80FFF785FE2DE0E1
:101D5000FB883A7D13449F2B13DD0023FB807B7DA2
:101D60001A46BB881344BB80BB887A7D13447F2B03
:101D700021DC3B681B78202B03D13B6801333B609F
:101D800014E03B681A78B988F8883B8C0293BB8BC7
:101D90000193BB6900937B69FFF756FF3B7D1A46B1
:101DA000FB881344FB803B6801333B603B681B7836
:101DB000002BCDD100E000BFFFF75AFE00BF08376F
:101DC000BD46BDE8804002B07047000090B585B0C8
:101DD00000AF0446084611461A462346FB800346D8
:101DE000BB800B467B8013463B80FB889F2B57D8DC
:101DF000BB887F2B54D8FA887B881344A02B03DD43
:101E0000FB88C3F1A0037B80BA883B881344802BF6
:101E100003DDBB88C3F180033B80FFF71DFEFB8819
:101E2000D8B2BB88D9B2FB88DAB27B88DBB2134464
:101E3000DBB2013BDCB2BB88DAB23B88DBB21344D5
:101E4000DBB2013BDBB22246FFF7AFFE3B8C1B0A45
:101E50009BB2DBB23B733B8CDBB27B730122022172
:101E6000114800F088FC3B88BB8013E07B88FB8036
:101E70000AE007F10C014FF0FF3302220B4801F09A
:101E8000F5F8FB88013BFB80FB88002BF1D1BB8878
:101E9000013BBB80BB88002BE8D1FFF7E9FD00E0E8
:101EA00000BF1437BD4690BD000C01400802002061
:101EB00080B584B002AF0346FB80FB88009380238B
:101EC000A02200210020FFF781FF00BF0837BD4698
:101ED00080BD000080B485B000AF154B9B69144AEB
:101EE00043F001039361124B9B6903F00103BB6054
:101EF000BB680F4BDB690E4A43F08053D3610C4B38
:101F0000DB6903F080537B607B680A4B5B68FB6096
:101F1000FB6823F0E063FB60FB6843F00073FB6049
:101F2000044AFB68536000BF1437BD4680BC70474D
:101F3000001002400000014080B400AF00BFFDE788
:101F400080B400AF00BFFDE780B400AF00BFFDE785
:101F500080B400AF00BFFDE780B400AF00BFFDE775
:101F600080B400AF00BFBD4680BC704780B400AFF6
:101F700000BFBD4680BC704780B400AF00BFBD4607
:101F800080BC704780B500AF00F036F900BF80BD5F
:101F900080B400AF01231846BD4680BC704780B5B1
:101FA00082B000AF7860396002F0F8F8034616227C
:101FB0001A604FF0FF3318460837BD4680BD80B524
:101FC00082B000AF78604FF0FF317868FFF7E7FF2D
:101FD00000BFFDE780B586B000AFF860B9607A60F9
:101FE00000237B610AE0AFF300800146BB685A1C06
:101FF000BA60CAB21A707B6901337B617A697B6807
:102000009A42F0DB7B6818461837BD4680BD80B524
:1020100086B000AFF860B9607A6000237B6109E0A8
:10202000BB685A1CBA601B781846AFF300807B6906
:1020300001337B617A697B689A42F1DB7B681846E1
:102040001837BD4680BD80B483B000AF78604FF0D4
:10205000FF3318460C37BD4680BC704780B483B050
:1020600000AF786039603B684FF400525A6000233B
:1020700018460C37BD4680BC704780B483B000AFB3
:102080007860012318460C37BD4680BC704780B489
:1020900085B000AFF860B9607A6000231846143745
:1020A000BD4680BC7047000080B586B000AF786048
:1020B000144A154BD31A7B617B693B61134B1B6838
:1020C000002B02D1114B124A1A60104B1A687B6820
:1020D00013443A699A4207D202F060F803460C2290
:1020E0001A604FF0FF3309E0084B1B68FB60074B99
:1020F0001A687B681344054A1360FB681846183752
:10210000BD4680BD00500020000400006002002099
:10211000B803002080B400AF00BFBD4680BC70474C
:10212000FFF7F8FF0B480C490C4A002302E0D45893
:10213000C4500433C4188C42F9D3094A094C002313
:1021400001E013600432A242FBD302F02DF8FFF746
:102150003FF8704700000020EC0100206C8F000861
:10216000EC010020B4030020FEE7000080B500AFC2
:10217000084B1B68074A43F010031360032000F06C
:102180002BF90F2000F008F8FFF7A4FE00231846F3
:1021900080BD00BF0020024080B582B000AF7860F3
:1021A000124B1A68124B1B7819464FF47A73B3FB23
:1021B000F1F3B2FBF3F3184600F035F90346002BB8
:1021C00001D001230EE07B680F2B0AD8002279682A
:1021D0004FF0FF3000F00BF9064A7B6813600023D4
:1021E00000E0012318460837BD4680BD18000020D6
:1021F000200000201C00002080B400AF054B1B789D
:102200001A46054B1B681344034A136000BFBD46C2
:1022100080BC7047200000206402002080B400AF22
:10222000024B1B681846BD4680BC70476402002004
:1022300080B584B000AF7860FFF7F0FFB8607B68CE
:10224000FB60FB68B3F1FF3F05D00A4B1B781A46D1
:10225000FB681344FB6000BFFFF7E0FF0246BB686A
:10226000D31AFA689A42F7D800BF00BF1037BD46AC
:1022700080BD00BF2000002080B485B000AF786032
:102280007B6803F00703FB600C4BDB68BB60BA683C
:102290004FF6FF031340BB60FB681A02BB68134391
:1022A00043F0BF6343F40033BB60044ABB68D360B0
:1022B00000BF1437BD4680BC704700BF00ED00E092
:1022C00080B400AF044BDB681B0A03F00703184619
:1022D000BD4680BC704700BF00ED00E080B483B015
:1022E00000AF03463960FB7197F90730002B0ADB1A
:1022F0003B68DAB20C4997F907301201D2B20B44AD
:1023000083F800230AE03B68DAB20849FB7903F05E
:102310000F03043B1201D2B20B441A7600BF0C37F4
:10232000BD4680BC704700BF00E100E000ED00E06A
:1023300080B489B000AFF860B9607A60FB6803F0E0
:102340000703FB61FB69C3F10703042B28BF0423C8
:10235000BB61FB690433062B02D9FB69033B00E038
:1023600000237B614FF0FF32BB6902FA03F3DA43CB
:10237000BB681A407B699A404FF0FF317B6901FAD4
:1023800003F3D9437B680B40134318462437BD46FB
:1023900080BC704780B582B000AF78607B68013B3D
:1023A000B3F1807F01D301230FE00A4A7B68013B30
:1023B00053600F214FF0FF30FFF790FF054B0022D5
:1023C0009A60044B07221A60002318460837BD465E
:1023D00080BD00BF10E000E080B582B000AF786043
:1023E0007868FFF749FF00BF0837BD4680BD80B55C
:1023F00086B000AF0346B9607A60FB7300237B614F
:10240000FFF75EFF78617A68B9687869FFF790FF37
:10241000024697F90F3011461846FFF75FFF00BFDD
:102420001837BD4680BD80B582B000AF786078684F
:10243000FFF7B0FF034618460837BD4680BD0000D1
:1024400080B48BB000AF7860396000237B620023DA
:102450003B6269E101227B6A02FA03F3FB613B689C
:102460001B68FA691340BB61BA69FB699A4240F084
:1024700058813B685B689A4A93425ED0984A93427F
:1024800075D8984A934258D0964A93426FD8964A44
:10249000934252D0944A934269D8944A93424CD082
:1024A000924A934263D8924A934246D0904A9342CA
:1024B0005DD8122B2AD8122B59D801A252F823F03A
:1024C0003B25000815250008272500086925000878
:1024D0006F2500086F2500086F2500086F2500088C
:1024E0006F2500086F2500086F2500086F2500087C
:1024F0006F2500086F2500086F2500086F2500086C
:102500006F2500081D25000831250008794A9342EF
:1025100013D02CE03B68DB683B6229E03B68DB685A
:1025200004333B6224E03B68DB6808333B621FE016
:102530003B68DB680C333B621AE03B689B68002B0E
:1025400002D104233B6213E03B689B68012B05D159
:1025500008233B627B68FA691A6109E008233B6241
:102560007B68FA695A6103E000233B6200E000BF28
:10257000BB69FF2B01D87B6801E07B6804337B617A
:10258000BB69FF2B02D87B6A9B0002E07B6A083B99
:102590009B003B617B691A680F213B6901FA03F3D9
:1025A000DB431A40396A3B6901FA03F31A437B693A
:1025B0001A603B685B6803F08053002B00F0B18029
:1025C0004D4B9B694C4A43F0010393614A4B9B6915
:1025D00003F00103BB60BB68484A7B6A9B08023377
:1025E00052F82330FB607B6A03F003039B000F2249
:1025F00002FA03F3DB43FA681340FB607B68404A4E
:10260000934213D07B683F4A93420DD07B683E4A89
:10261000934207D07B683D4A934201D1032306E0F1
:10262000042304E0022302E0012300E000237A6A8D
:1026300002F0030292009340FA681343FB602F49B3
:102640007B6A9B080233FA6841F823203B685B6889
:1026500003F48013002B06D02D4B9A682C49BB69DC
:1026600013438B6006E02A4B9A68BB69DB43284919
:1026700013408B603B685B6803F40013002B06D0AB
:10268000234BDA682249BB691343CB6006E0204B39
:10269000DA68BB69DB431E491340CB603B685B686B
:1026A00003F40033002B06D0194B5A681849BB6954
:1026B00013434B6006E0164B5A68BB69DB43144971
:1026C00013404B603B685B6803F48033002B21D0E0
:1026D0000F4B1A680E49BB6913430B6021E000BF22
:1026E0000000321000003110000022100000211004
:1026F0000000121000001110001002400000014004
:1027000000080140000C014000100140001401408D
:10271000000401400B4B1A68BB69DB4309491340B5
:102720000B607B6A01337B623B681A687B6A22FA22
:1027300003F3002B7FF48EAE00BF00BF2C37BD46E5
:1027400080BC70470004014080B485B000AF786061
:102750000B467B807B689A687B881340002B02D0F5
:102760000123FB7301E00023FB73FB7B1846143746
:10277000BD4680BC704780B483B000AF78600B4624
:102780007B8013467B707B78002B03D07A887B6834
:102790001A6103E07B881A047B681A6100BF0C375A
:1027A000BD4680BC7047000080B586B000AF786041
:1027B0007B68002B01D1012372E27B681B6803F068
:1027C0000103002B00F08780924B5B6803F00C0341
:1027D000042B0CD08F4B5B6803F00C03082B12D139
:1027E0008C4B5B6803F48033B3F5803F0BD1894B8E
:1027F0001B6803F40033002B6CD07B685B68002BF4
:1028000068D101234CE27B685B68B3F5803F06D159
:10281000804B1B687F4A43F4803313602EE07B6853
:102820005B68002B0CD17B4B1B687A4A23F4803306
:102830001360784B1B68774A23F4802313601DE0F4
:102840007B685B68B3F5A02F0CD1724B1B68714A93
:1028500043F4802313606F4B1B686E4A43F480334C
:1028600013600BE06B4B1B686A4A23F480331360E0
:10287000684B1B68674A23F4802313607B685B689E
:10288000002B13D0FFF7CAFC386108E0FFF7C6FC45
:1028900002463B69D31A642B01D9032300E25D4B46
:1028A0001B6803F40033002BF0D014E0FFF7B6FCF4
:1028B000386108E0FFF7B2FC02463B69D31A642B8B
:1028C00001D90323ECE1534B1B6803F40033002BC5
:1028D000F0D100E000BF7B681B6803F00203002B0F
:1028E00063D04C4B5B6803F00C03002B0BD0494BBF
:1028F0005B6803F00C03082B1CD1464B5B6803F4A8
:102900008033002B16D1434B1B6803F00203002BCE
:1029100005D07B681B69012B01D00123C0E13D4B31
:102920001B6823F0F8027B685B69DB0039491343BD
:102930000B603AE07B681B69002B20D0364B0122EC
:102940001A60FFF76BFC386108E0FFF767FC02468E
:102950003B69D31A022B01D90323A1E12D4B1B683C
:1029600003F00203002BF0D02A4B1B6823F0F8027F
:102970007B685B69DB00274913430B6015E0264B3E
:1029800000221A60FFF74AFC386108E0FFF746FCB6
:1029900002463B69D31A022B01D9032380E11D4B68
:1029A0001B6803F00203002BF0D17B681B6803F067
:1029B0000803002B3AD07B689B69002B19D0174B7A
:1029C00001221A60FFF72AFC386108E0FFF726FCB5
:1029D00002463B69D31A022B01D9032360E10D4B58
:1029E0005B6A03F00203002BF0D0012000F09CFA98
:1029F0001CE00A4B00221A60FFF710FC38610FE060
:102A0000FFF70CFC02463B69D31A022B08D90323BB
:102A100046E100BF001002400000424280044242F2
:102A2000924B5B6A03F00203002BE9D17B681B68C1
:102A300003F00403002B00F0A6800023FB758B4BF2
:102A4000DB6903F08053002B0DD1884BDB69874A8B
:102A500043F08053D361854BDB6903F08053BB6047
:102A6000BB680123FB75824B1B6803F48073002B4A
:102A700018D17F4B1B687E4A43F480731360FFF7C5
:102A8000CDFB386108E0FFF7C9FB02463B69D31A6A
:102A9000642B01D9032303E1754B1B6803F4807396
:102AA000002BF0D07B68DB68012B06D16F4B1B6AD3
:102AB0006E4A43F0010313622DE07B68DB68002B54
:102AC0000CD16A4B1B6A694A23F001031362674BFE
:102AD0001B6A664A23F0040313621CE07B68DB6810
:102AE000052B0CD1614B1B6A604A43F0040313624F
:102AF0005E4B1B6A5D4A43F0010313620BE05B4BC4
:102B00001B6A5A4A23F001031362584B1B6A574A47
:102B100023F0040313627B68DB68002B15D0FFF7FA
:102B20007DFB38610AE0FFF779FB02463B69D31A67
:102B300041F28832934201D90323B1E04B4B1B6A27
:102B400003F00203002BEED014E0FFF767FB3861BF
:102B50000AE0FFF763FB02463B69D31A41F2883271
:102B6000934201D903239BE0404B1B6A03F002030D
:102B7000002BEED1FB7D012B05D13C4BDB693B4AA1
:102B800023F08053D3617B68DB69002B00F08780E2
:102B9000364B5B6803F00C03082B61D07B68DB6964
:102BA000022B46D1334B00221A60FFF737FB386106
:102BB00008E0FFF733FB02463B69D31A022B01D929
:102BC00003236DE0294B1B6803F00073002BF0D149
:102BD0007B681B6AB3F5803F08D1244B5B6823F404
:102BE00000327B689B68214913434B601F4B5B6835
:102BF00023F474127B68196A7B685B6A0B431B4978
:102C000013434B601B4B01221A60FFF707FB38612F
:102C100008E0FFF703FB02463B69D31A022B01D9F8
:102C200003233DE0114B1B6803F00073002BF0D031
:102C300035E0104B00221A60FFF7F0FA386108E027
:102C4000FFF7ECFA02463B69D31A022B01D90323A2
:102C500026E0064B1B6803F00073002BF0D11EE04A
:102C60007B68DB69012B07D1012319E000100240CA
:102C700000700040600042420B4B5B68FB60FB68E9
:102C800003F480327B681B6A9A4206D1FB6803F426
:102C900070127B685B6A9A4201D0012300E0002336
:102CA00018461837BD4680BD0010024080B584B07C
:102CB00000AF786039607B68002B01D10123D0E040
:102CC0006A4B1B6803F007033A689A4210D9674BB6
:102CD0001B6823F0070265493B6813430B60634B95
:102CE0001B6803F007033A689A4201D00123B8E059
:102CF0007B681B6803F00203002B20D07B681B68F5
:102D000003F00403002B05D0594B5B68584A43F489
:102D1000E06353607B681B6803F00803002B05D059
:102D2000534B5B68524A43F460535360504B5B68AB
:102D300023F0F0027B689B684D4913434B607B682E
:102D40001B6803F00103002B40D07B685B68012BFC
:102D500007D1474B1B6803F40033002B15D1012327
:102D60007FE07B685B68022B07D1414B1B6803F057
:102D70000073002B09D1012373E03D4B1B6803F066
:102D80000203002B01D101236BE0394B5B6823F078
:102D900003027B685B68364913434B60FFF73EFADA
:102DA000F8600AE0FFF73AFA0246FB68D31A41F2EC
:102DB0008832934201D9032353E02D4B5B6803F023
:102DC0000C027B685B689B009A42EBD1274B1B6827
:102DD00003F007033A689A4210D2244B1B6823F091
:102DE000070222493B6813430B60204B1B6803F02A
:102DF00007033A689A4201D0012332E07B681B68DE
:102E000003F00403002B08D0194B5B6823F4E06245
:102E10007B68DB68164913434B607B681B6803F0D3
:102E20000803002B09D0124B5B6823F460527B68C7
:102E30001B69DB000E4913434B6000F021F802468A
:102E40000B4B5B681B0903F00F030A49CB5C22FAAA
:102E500003F3094A1360094B1B681846FFF79CF9F6
:102E6000002318461037BD4680BD00BF0020024039
:102E700000100240C48B0008180000201C00002035
:102E800080B487B000AF0023FB600023BB60002349
:102E90007B6100237B6000233B611E4B5B68FB6012
:102EA000FB6803F00C03042B02D0082B03D027E0AF
:102EB000194B3B6127E0FB689B0C03F00F03174A9B
:102EC000D35C7B60FB6803F48033002B10D0114B84
:102ED0005B685B0C03F00103114AD35CBB607B6849
:102EE0000D4A03FB02F2BB68B2FBF3F37B6104E023
:102EF0007B680C4A02FB03F37B617B693B6102E068
:102F0000054B3B6100BF3B6918461C37BD4680BC82
:102F1000704700BF0010024000127A00D48B0008F6
:102F2000E48B000800093D0080B485B000AF7860F4
:102F30000A4B1B680A4AA2FB03235B0A7A6802FB5E
:102F400003F3FB6000BFFB685A1EFA60002BF9D147
:102F500000BF00BF1437BD4680BC7047180000207A
:102F6000D34D621080B582B000AF78607B68002BD3
:102F700001D1012376E07B685B6A002B08D17B6876
:102F80005B68B3F5827F09D07B680022DA6105E0D7
:102F90007B6800221A617B6800225A617B680022EC
:102FA0009A627B6893F85130DBB2002B06D17B68C4
:102FB000002283F850207868FEF710FD7B6802221B
:102FC00083F851207B681B681A687B681B6822F0B5
:102FD00040021A607B685B6803F482727B689B68BE
:102FE00003F404431A437B68DB6803F400631A4369
:102FF0007B681B6903F002031A437B685B6903F07B
:1030000001031A437B689B6903F400731A437B68CE
:10301000DB6903F038031A437B681B6A03F0800303
:1030200042EA03017B689B6A03F400527B681B68D9
:103030000A431A607B689B691A0C7B681B6802F064
:1030400004025A607B681B68DA697B681B6822F49B
:103050000062DA617B6800225A657B68012283F88E
:103060005120002318460837BD4680BD80B588B082
:1030700000AFF860B9603B601346FB80FFF7CEF805
:10308000F861FB887B83FB6893F85130DBB2012B3E
:1030900001D002232AE1BB68002B02D0FB88002B61
:1030A00001D1012322E1FB6893F85030012B01D1BB
:1030B00002231BE1FB68012283F85020FB680322F6
:1030C00083F85120FB6800225A65FB68BA681A63CE
:1030D000FB68FA889A86FB68FA88DA86FB68002221
:1030E0009A63FB6800229A87FB680022DA87FB68F4
:1030F00000225A64FB6800221A64FB689B68B3F5DF
:10310000004F0FD1FB681B681A68FB681B6822F030
:1031100040021A60FB681B681A68FB681B6842F46F
:1031200080421A60FB681B681B6803F04003402B59
:1031300007D0FB681B681A68FB681B6842F04002F6
:103140001A60FB68DB68B3F5006F52D1FB685B68FF
:10315000002B02D07B8B012B45D1FB681B6B1A889F
:10316000FB681B68DA60FB681B6B9A1CFB681A63C0
:10317000FB68DB8E9BB2013B9AB2FB68DA8632E0D9
:10318000FB681B689B6803F00203022B12D1FB68EB
:103190001B6B1A88FB681B68DA60FB681B6B9A1C48
:1031A000FB681A63FB68DB8E9BB2013B9AB2FB683B
:1031B000DA8618E0FFF732F80246FB69D31A3A685C
:1031C0009A4203D83B68B3F1FF3F02D13B68002B22
:1031D00009D1FB68012283F85120FB68002283F8A3
:1031E0005020032382E0FB68DB8E9BB2002BC7D10B
:1031F00053E0FB685B68002B02D07B8B012B47D12F
:10320000FB681A6BFB681B680C3312781A70FB683A
:103210001B6B5A1CFB681A63FB68DB8E9BB2013B7D
:103220009AB2FB68DA8633E0FB681B689B6803F0A0
:103230000203022B13D1FB681A6BFB681B680C336B
:1032400012781A70FB681B6B5A1CFB681A63FB68C8
:10325000DB8E9BB2013B9AB2FB68DA8618E0FEF780
:10326000DDFF0246FB69D31A3A689A4203D83B68ED
:10327000B3F1FF3F02D13B68002B09D1FB6801226B
:1032800083F85120FB68002283F8502003232DE0AF
:10329000FB68DB8E9BB2002BC6D1FA693968F868EF
:1032A00000F0B0F80346002B02D0FB6820225A65DC
:1032B000FB689B68002B0AD100237B61FB681B68BD
:1032C000DB687B61FB681B689B687B617B69FB68D3
:1032D000012283F85120FB68002283F85020FB680C
:1032E0005B6D002B01D0012300E00023184620373E
:1032F000BD4680BD80B588B000AFF860B9603B6066
:103300001346FB71FEF78AFF0246BB6A9B1A3A68B6
:103310001344FB61FEF782FFB861394B1B685B0108
:103320001B0DFA6902FB03F37B6154E03B68B3F1C8
:10333000FF3F50D0FEF772FF0246BB69D31AFA690D
:103340009A4202D9FB69002B3DD1FB681B685A6881
:10335000FB681B6822F0E0025A60FB685B68B3F50B
:10336000827F11D1FB689B68B3F5004F04D0FB68E6
:103370009B68B3F5806F07D1FB681B681A68FB6810
:103380001B6822F040021A60FB689B6AB3F5005F7D
:103390000FD1FB681B681A68FB681B6822F4005297
:1033A0001A60FB681B681A68FB681B6842F40052CD
:1033B0001A60FB68012283F85120FB68002283F821
:1033C0005020032317E07B69002B01D10023FB6110
:1033D0007B69013B7B61FB681B689A68BB68134093
:1033E000BA689A420CBF01230023DBB21A46FB796C
:1033F0009A429BD1002318462037BD4680BD00BFAE
:103400001800002080B586B002AFF860B9607A601D
:103410007B680093BB6801220221F868FFF76AFF0E
:103420000346002B07D0FB685B6D43F02002FB686E
:103430005A65032313E07B680093BB680022802158
:10344000F868FFF757FF0346002B07D0FB685B6D5A
:1034500043F02002FB685A65032300E0002318466E
:103460001037BD4680BD0000024B0146186800F0D1
:1034700025B800BF3000002070B50F4E0C463168F3
:10348000054611B900F068FE30602146284600F07C
:1034900063FE431C03D14FF0FF34204670BDC41CB3
:1034A00024F00304A042F8D0211A284600F054FE6C
:1034B0000130F2D1EFE700BF680200202DE9F843A8
:1034C000CD1C25F0030508350C2D38BF0C25002D2B
:1034D000064601DBA94204D90C2333600020BDE875
:1034E000F883DFF8D48000F069F8D8F800301C4683
:1034F00044BB29463046FFF7BFFF431C044658D162
:10350000D8F800402746002F43D1002C4BD0236829
:103510003946304604EB030900F01EFE814542D1D6
:10352000216830466D1A2946FFF7A6FF01303AD0D0
:1035300023682B442360D8F800305A6862BBC8F86F
:1035400000700FE02268521B20D40B2A17D9611992
:10355000A342256018BF5960636808BFC8F800100F
:1035600062514B60304600F02FF804F10B00231D30
:1035700020F00700C21A1CBF1B1AA350AFE76268F5
:10358000A3420CBFC8F800205A60EBE723466468EA
:10359000AEE73C467F68B6E71A465B68A342FBD1BC
:1035A00000235360DEE70C233046336000F00CF854
:1035B00094E70560D6E700BF6C020020014800F0E8
:1035C00018BE00BFB0030020014800F013BE00BFCA
:1035D000B0030020002B2DE9F0471D46BBBF03F1CF
:1035E00000431D4600232D2388B01446B8BF14465F
:1035F000129A109E1370149BDDF84CA023F0200843
:10360000B8F1460F05D0B8F1450F00D101360223BD
:1036100000E0032307AA049206AACDE902A2CDE99D
:10362000003622462B4600F07FFEB8F1470F0746D2
:1036300019D1119BDB070ED500EB060900220023F0
:1036400020462946FDF7B0F908B1CDF81C9030228C
:10365000079B4B451ED33846079B159ADB1B13600F
:1036600008B0BDE8F087B8F1460F00EB0609E5D1D8
:103670000378302B0AD10022002320462946FDF78B
:1036800093F918B9C6F10106CAF80060DAF80030FB
:103690009944D3E7591C07911A70D9E7F7B5002967
:1036A000B6BF2D232B23494209290270437029DD1F
:1036B0000DF107031D460A27B1FBF7F61A4607FB73
:1036C0001614303402F8014C0C46632C314603F1D9
:1036D000FF33F1DC3031941E03F8011C2346411CFA
:1036E000AB420AD30DF109039B1AAC4288BF0023F9
:1036F00002330344181A03B0F0BD13F8016B01F84C
:10370000016FEDE7302330318370C170031DF1E7A5
:103710002DE9F04F91B00C46DDF8688016461F4643
:10372000054600F0E1FC036818460893FCF710FD1D
:1037300000230E93D8F800300990073323F00703D5
:1037400003F1080294F818A0D4F800B0C8F80020DB
:10375000D3E9008929F000430B93CDF828804FF07E
:10376000FF32DDE90A01C4E912899C4BFDF74EF9ED
:1037700070BBDDE90A014FF0FF32984BFDF728F9E5
:1037800030BB0022002340464946FDF717F910B12F
:103790002D2384F84330924A924BBAF1470F8CBFE5
:1037A0009046984603234FF0000923612BF0040351
:1037B000236033462146284600970FAA00F0D4F92B
:1037C000013040F090804FF0FF3011B0BDE8F08F35
:1037D00042464B4640464946FDF718F948B14B462C
:1037E000002BB8BF2D23804AB8BF84F843307F4BED
:1037F000D3E763680AF0DF015A1C3FD106236360F8
:1038000000224BF48063236006920EAACDE904A245
:103810000DAA03920DF13302CDE9013263684246ED
:10382000009328464B460A91FFF7D4FE0A9980463A
:1038300047290D9928D1C81C02DB6368994240DDF5
:10384000AAF1020A5FFA8AFA5246013904F15000DD
:103850000D91FFF723FF0E9A81461318012A236169
:1038600002DC2268D20701D5013323619DF8333091
:10387000002B9ED02D2384F843309AE74729BFD1EF
:10388000002BBDD10123BAE7BAF1650FDCD9BAF13B
:10389000660F18D1002963680BDD216113B9226816
:1038A000D00702D501330B4423614FF00009A16515
:1038B000DCE713B92268D20701D50233F4E701230C
:1038C000F2E74FF0670A0E9B994205DB23682161FE
:1038D000D807EAD54B1CE7E70029CCBF0122C1F18C
:1038E00002021344E0E723685A0507D423694246DD
:1038F00031462846B84701302BD164E7BAF1650F4D
:1039000040F2DC80D4E9120100220023FDF74CF8DC
:10391000002833D0012331462846354AB8470130C4
:103920003FF451AFDDE90D38434502DB2368D8078A
:103930000FD5DDE9082331462846B84701303FF46A
:1039400042AF4FF0000908F1FF3804F11A0AC845E8
:1039500009DC23689B0700F10281E0680F9B984215
:10396000B8BF184631E70123524631462846B847CA
:1039700001303FF428AF09F10109E8E70D9B002B66
:1039800038DC012331462846194AB84701303FF454
:103990001AAFDDE90D3959EA030302D12368D907CB
:1039A000D7D5DDE9082331462846B84701303FF432
:1039B0000AAF4FF0000A04F11A0B0D9B5B4253450E
:1039C00001DC4B4693E701235A4631462846B84767
:1039D00001303FF4F8AE0AF1010AEEE7FFFFEF7F96
:1039E000EA8B0008E68B0008F28B0008EE8B0008DB
:1039F000F68B0008A36DDDF838A05345A8BF5346E9
:103A0000002B994636DC4FF0000B29EAE97904F1E6
:103A10001A02A36D0A93A3EB09035B4531DC0D9BEE
:103A20009A453ADC2368DA0737D40D9BAAEB0309E1
:103A30000A9BAAEB03039945A8BF9946B9F1000F69
:103A400033DC4FF0000829EAE97904F11A0B0D9BE9
:103A5000AAEB0303A3EB090343457FF77AAF0123E6
:103A60005A4631462846B84701303FF4ACAE08F11B
:103A70000108ECE7424631462846B8470130C2D13A
:103A8000A1E60123314628460A92B84701303FF4A7
:103A90009AAE0A9A0BF1010BBBE73146DDE9082328
:103AA0002846B8470130C0D18DE60A9A4B463146C8
:103AB00028464244B8470130C3D184E6DDF838A037
:103AC000BAF1010F01DCDB0736D50123424631464E
:103AD0002846B84701303FF476AEDDE90823314689
:103AE0002846B84701303FF46EAED4E912010022F7
:103AF00000230AF1FF3AFCF757FFC0B9534608F11B
:103B0000010231462846B84701300CD15BE601235B
:103B10005A4631462846B84701303FF454AE08F1C2
:103B20000108D045F3DB4B4604F15002E0E64FF0CC
:103B3000000804F11A0BF4E701234246E1E70123F0
:103B40004A4631462846B84701303FF43CAE08F1BA
:103B50000108E3680F995B1A4345F0DCFDE64FF07E
:103B6000000804F11909F4E72DE9F04716469846D4
:103B70008A680B6907469342B8BF1346336091F8D1
:103B800043200C46DDF820900AB1013333602368EE
:103B9000990642BF336802333360256815F0060585
:103BA00006D104F1190AE36832689B1AAB422BDC98
:103BB00094F843302268003B18BF0123920630D4AA
:103BC0004146384604F14302C847013023D02368F8
:103BD000226903F00603042B14BF002533684FF05D
:103BE000000608BFE56804F11A0408BFED1A54F88E
:103BF000123C08BF25EAE5759342C4BF9B1AED1835
:103C0000B5421AD1002008E0012352464146384609
:103C1000C847013003D14FF0FF30BDE8F0870135D0
:103C2000C1E73020E11881F843005A1C94F8451090
:103C30002244023382F84310C2E701232246414660
:103C40003846C8470130E6D00136D9E72DE9FF47AD
:103C50000F7E9146782F80460C469A460C9E01F1C5
:103C6000430207D8622F0AD8002F00F0D180582FC6
:103C700000F0B88004F1420684F842703AE0A7F1FF
:103C80006303152BF6D801A151F823F0E53C000899
:103C9000F93C0008753C0008753C0008753C0008BC
:103CA000753C0008F93C0008753C0008753C0008AC
:103CB000753C0008753C0008F73D0008233D0008EE
:103CC000B13D0008753C0008753C0008193E00082D
:103CD000753C0008233D0008753C0008753C000851
:103CE000B93D000833681A1D1B68326004F14206B2
:103CF00084F8423001239CE033682068191D31604C
:103D0000060601D51D6803E04506FBD5B3F9005052
:103D1000002D03DA2D236D4284F843300A235848DE
:103D200011E021683368080653F8045B02D44906A1
:103D300048BFADB26F2F336014BF0A230823504829
:103D4000002184F843106668002EA66005DB216818
:103D50002E4321F0040121604BD01646B5FBF3F150
:103D600003FB1157C75D06F8017D2F46BB420D4688
:103D7000F4D9082B0BD12368DF0708D523696168C4
:103D80009942DEBF302306F8013C06F1FF36921B54
:103D900022614B4621464046CDF800A003AAFFF71A
:103DA000E3FE01304AD14FF0FF3004B0BDE8F087A8
:103DB000236843F0200323607827324884F8457055
:103DC000236831681F0651F8045B02D45F0648BFC0
:103DD000ADB23160D90744BF43F0200323601DB169
:103DE0001023ADE72648E9E7236823F0200323608A
:103DF000F6E71646BDE733682568181D616930602F
:103E00002E061B6801D5196002E06806FBD51980F3
:103E1000002316462361BCE7336800211A1D326077
:103E20001E686268304600F0E6F908B1801B6060E9
:103E300063682361002384F84330AAE73246494689
:103E400040462369D0470130ADD023689B0713D487
:103E5000E068039B9842B8BF1846A6E701233246A4
:103E600049464046D04701309DD00135E36803996B
:103E70005B1AAB42F2DCEBE7002504F11906F5E72B
:103E8000F88B0008098C0008002310B50446C0E92F
:103E90000033C0E90433836081814366C28183615A
:103EA000194608225C3000F016F90D4B246263625B
:103EB0000C4BA3620C4BE3620C4B23630C4B9C42F8
:103EC00006D003F16802944202D0D0339C4205D15F
:103ED00004F15800BDE8104000F08AB910BD00BFE1
:103EE0005140000873400008AB400008CF40000874
:103EF00070020020024A0349034800F069B800BF7D
:103F000024000020055A00083400002041680C4BB2
:103F100010B59942044601D001F074FDA168094B27
:103F2000994202D0204601F06DFDE168064B9942AE
:103F300004D02046BDE8104001F064BD10BD00BFB4
:103F400070020020D80200204003002010B50B4B67
:103F50000B4C0C4A20461A6004210022FFF794FF04
:103F600004F1680001220921FFF78EFF04F1D0005F
:103F70000222BDE810401221FFF786BFA8030020EF
:103F800070020020F53E0008014800F032B900BF81
:103F9000B1030020014800F02DB900BFB10300209B
:103FA00010B50446FFF7F0FF236A1BB1BDE81040CF
:103FB000FFF7F0BF044B2362044B1B68002BF5D1C5
:103FC000FFF7C4FFF2E700BF0D3F0008A803002081
:103FD0002DE9F8430746884614460026D4E90195A2
:103FE000B9F1010905D52468002CF7D13046BDE8A8
:103FF000F883AB89012B07D9B5F90E30013303D013
:1040000029463846C04706436835E9E70EB46FF0E5
:10401000004110B500249DB01FAB0290069007919F
:1040200004910948094953F8042B0591006802A935
:1040300001931B9401F06AFB029B1C701DB0BDE84C
:10404000104003B0704700BF300000200802FFFF9F
:1040500010B50C46B1F90E1000F06CF80028ABBF9B
:10406000636DA3891B1823F48053ACBF6365A381E0
:1040700010BD2DE9F0411F468B890546DB050C4636
:10408000164605D502230022B1F90E1000F040F8C3
:10409000A389324623F48053A38128463B46B4F9D2
:1040A0000E10BDE8F04100F067B810B50C46B1F94C
:1040B0000E1000F02DF8431CA38915BF606523F492
:1040C000805343F48053A38118BFA38110BDB1F97D
:1040D0000E1000F00DB803460244934200D1704721
:1040E00003F8011BF9E70000004870477001002049
:1040F00038B50023054D044608462B60FDF7A3FFA5
:10410000431C02D12B6803B1236038BDAC030020EF
:1041100038B50446084611460022054D2A601A4665
:10412000FDF7B5FF431C02D12B6803B1236038BDF6
:10413000AC03002038B50446084611460022054D60
:104140002A601A46FDF746FF431C02D12B6803B1D3
:10415000236038BDAC03002038B50023054D04466C
:1041600008462B60FDF7A0FF431C02D12B6803B16A
:10417000236038BDAC03002038B50446084611461C
:104180000022054D2A601A46FDF741FF431C02D16B
:104190002B6803B1236038BDAC030020014B1868C5
:1041A000704700BF3000002070B500260C4D0D4C4C
:1041B000641BA410A64209D101F0B0FF00260A4DED
:1041C0000A4C641BA410A64205D170BD55F8043BEF
:1041D00098470136EEE755F8043B98470136F2E779
:1041E000648F0008648F0008648F0008688F0008DF
:1041F000704770477047034610B5C9B202449342F6
:10420000184601D1002003E0047801338C42F6D136
:1042100010BD2DE9F74F03690C690746A3427EDB09
:10422000013CA30000F1140501F11408009305EB13
:104230008403019358F8243055F8242001339A421E
:10424000B2FBF3F608EB84092ED34FF0000AC44604
:10425000AE46D3465CF8043B98B206FB00A01B0CAC
:10426000020C06FB0323DEF8002080B292B2121A81
:104270005A44DEF800004FEA134A9BB2C3EB2243D4
:1042800003EB104392B242EA0342E1454FEA234B6B
:104290004EF8042BDED2009BEB582BB9019B043B5C
:1042A0009D421A462FD33C61384601F0CBF80028D6
:1042B00025DB2946002058F8042BD1F800C01FFA4E
:1042C00082FE1FFA8CF3A3EB0E030344120CC2EB25
:1042D000234202EB1C429BB243EA0243C1454FEA30
:1042E000224041F8043BE6D255F8242005EB840334
:1042F00022B9043B9D421A460BD33C61013630463D
:1043000003B0BDE8F08F1268043B002ACBD1013C1A
:10431000C6E71268043B002AEFD1013CEAE700201F
:10432000EEE70000000000002DE9F04F14461D46A6
:10433000C76997B08146CDE90645239E7FB9102015
:10434000FFF792F80246C9F81C0020B9EF21AC4BE8
:10435000AC4801F0A7FBC0E901770760C760D9F856
:104360001C30196859B15A68012393404A608B6028
:10437000484600F035FE0022D9F81C301A602B1E8A
:10438000AFBF0023012223F000430793A8BF33608F
:10439000DDF81C809C4BB8BF326033EA080312D1B1
:1043A00042F20F73229A1360C8F31303234300F001
:1043B0005E85249BDFF854A2002B00F060850AF193
:1043C000030300F05ABDDDE90623CDE90C23DDE946
:1043D0000C0100220023FCF7E7FA074658B101233D
:1043E000229A1360249B13B1894B249A1360DFF83F
:1043F00024A200F044BD14AB019315AB00934846D2
:10440000DDE90C2301F0CEF8C8F30A560390002E24
:1044100078D0DDE90C010D9BA6F2FF36C3F3130340
:1044200043F07F5343F440131297194600227A4B0E
:10443000FBF79AFE6CA3D3E90023FCF74DF86CA3BD
:10444000D3E90023FBF792FE044630460D46FBF706
:10445000D9FF69A3D3E90023FCF73EF802460B46D7
:1044600020462946FBF782FE04460D46FCF7E4FA97
:1044700000220746002320462946FCF79FFA40B158
:104480003846FBF7BFFF22462B46FCF78DFA00B9F2
:10449000013F162F54D8DDE90C01604B03EBC70335
:1044A000D3E90023FCF78AFA00284BD00023013F10
:1044B0000F93149B9B1B5A1E49BFC3F1010300239A
:1044C00004930023099254BF04930993002F3BDB0C
:1044D000099B0E973B44099300230A93209B092BC9
:1044E00065D8052BC4BF043B2093209BC8BF002484
:1044F000A3F10203D8BF0124032B64D8DFE803F043
:104500005355382CDDE914631E4406F23243202B48
:10451000C1BFC3F1400308FA03F806F2124324FABC
:1045200003F3D6BFC3F1200348EA030004FA03F003
:10453000FBF758FF0122A1F1F873013E129274E7D4
:104540000123B5E70F90B4E7049BDB1B04937B4288
:104550000A9300230E93C1E701230B93219B07EBE2
:10456000030B0BF10103012B0893B8BF012306E0F5
:1045700001230B93219B002B28DD9B4608930021F0
:104580000422D9F81C0002F114059D4226D941608D
:10459000484600F0E5FC8246002843D1024640F23E
:1045A000AF111F4BD4E60023E3E70023D5E7012436
:1045B00000230B9420934FF0FF3B00221223CDF8F1
:1045C00020B02192DBE701230B93F4E74FF0010BBE
:1045D0005B46CDF820B0CDF884B0D0E70131520071
:1045E000D1E700BFAFF3008061436F63A787D23F7D
:1045F000B3C8608B288AC63FFB799F501344D33FD2
:10460000278C00083E8C00080000F07F238C0008F7
:10461000F78B0008F68B00080000F83F908D00082B
:10462000968C0008D9F81C301860089B0E2B00F2FD
:10463000A180002C00F09E80002F33DD9C4B07F002
:104640000F0203EBC203F805D3E90034CDE91034BF
:104650004FEA271416D5DDE90C01964B0326D3E962
:104660000823FCF763F8CDE9060104F00F04914D2F
:1046700054B9DDE91023DDE90601FCF757F8CDE96F
:10468000060128E00226F2E7E10708D5DDE910017E
:10469000D5E90023FBF720FFCDE9100101366410B6
:1046A0000835E5E700F0AF80DDE90C017C42804B86
:1046B00004F00F0203EBC203D3E90023FBF70CFF66
:1046C00002260023CDE906017A4D2411002C40F08A
:1046D0008F80002BD3D1DDE906450F9B002B00F026
:1046E0009480002220462946734BFCF767F9002886
:1046F00000F08B80089B002B00F08780BBF1000F3F
:1047000034DD2046002229466C4BFBF7E5FE5C4673
:10471000CDE9060107F1FF3801363046FBF772FE9E
:10472000DDE90623FBF7D8FE0022654BFBF71EFDF3
:104730000546A1F15076002C6AD1DDE90601002280
:10474000604BFBF711FD02460B46CDE906232A46D6
:104750003346FCF751F9002840F09882DDE9060164
:104760002A4606F10043FCF729F938BBDDE90C3491
:10477000CDE90634159B002BC0F257810E2F00F3B4
:1047800054814B4B03EBC703D3E90034CDE9043428
:10479000219B002B80F2E580089B002B00F3E18039
:1047A0000CD1DDE904010022464BFBF795FEDDE963
:1047B0000623FCF717F9002800F06682002425463E
:1047C000219B56466FEA030800272146484600F021
:1047D00007FC002D00F0BD802FB1AF4203D0394659
:1047E000484600F0FDFB2946484600F0F9FBB0E0E2
:1047F000E20705D5D5E90023FBF76EFE012301365C
:104800006410083562E7022665E7B846089C84E72D
:10481000274B0B9903EBC40353E9022354440029AB
:1048200054D000202849FBF781FF33462A46FBF786
:104830009BFC5646CDE91001DDE90601FCF7FCF8CA
:104840000546FBF7DFFD02460B46DDE90601FBF7F7
:104850008BFC02460B463035CDE90623DDE91023FB
:1048600006F8015BFCF7AAF8002872D1DDE90623FF
:1048700000201149FBF778FCDDE91023FCF79EF8D6
:10488000002840F0B480A6423FF470AFDDE910018B
:1048900000220A4BFBF720FE0022CDE91001DDE9E2
:1048A0000601064BFBF718FECDE90601C4E700BF81
:1048B000908D0008688D00080000F03F0000244043
:1048C00000001C40000014400000E03F3146284634
:1048D000FBF702FE5646CDE910011394DDE906010F
:1048E000FCF7AAF80546FBF78DFD02460B46DDE90D
:1048F0000601FBF739FC02460B46303506F8015B32
:10490000A642CDE906234FF0000224D1DDE91001D3
:10491000AE4BFBF72BFC02460B46DDE90601FCF72C
:104920006BF8002863D1DDE910230020A749FBF7CD
:104930001BFC02460B46DDE90601FCF73FF80028A8
:104940003FF414AF139E731E139316F8013C302BE3
:10495000F8D047463BE09E4BFBF7BEFDCDE9060194
:10496000BCE75646DDE90645DDE904232046294635
:10497000FBF7DCFEFCF760F88046FBF743FDDDE962
:104980000423FBF7A9FD02460B4620462946FBF708
:10499000EBFB08F13004089D06F8014BA6EB0A0476
:1049A000A54202460B4633D1FBF7E0FBDDE90423C9
:1049B00004460D46FCF720F8C0B9DDE90423204683
:1049C0002946FBF7F1FF10B118F0010F0ED1484650
:1049D000039900F005FB00233370229B01371F6011
:1049E000249B002B00F04B821E6048E2B846334601
:1049F0001E4613F8012D392A06D19A45F8D13022E6
:104A000008F101088AF800201A7801321A70A0E72C
:104A100000226F4BFBF760FD0022002304460D4689
:104A2000FBF7C2FF00289FD0D1E70B9A002A00F0C5
:104A3000EA80209A012A00F3CD80129A002A00F021
:104A4000C18003F233430A9C049E049A01211A4454
:104A50000492099A48461A44099200F075FB0546EB
:104A600066B1099B002B09DDB342A8BF3346049A07
:104A7000F61AD21A0492099AD31A09930A9B0BB315
:104A80000B9B002B00F0C680002C00F0C080294654
:104A90002246484600F010FC039A01460546484667
:104AA00000F068FB03998046484600F099FA0A9B9B
:104AB0001B1B0A9300F0B18041460A9A484600F059
:104AC000FBFB03900121484600F03EFB0E9B044691
:104AD000002B00F0D8811A460146484600F0ECFB56
:104AE000209B0446012B00F39F80069B002B40F087
:104AF0009780079BC3F31303002B40F09380079B21
:104B000023F000431B0D1B0533B1049B01330493B9
:104B1000099B0133099301230A930E9B002B00F09C
:104B2000B881236904EB8303186900F0C1FAC0F16E
:104B30002000099B184410F01F0000F08280C0F193
:104B40002003042B73DD049BC0F11C000344049379
:104B5000099B064403440993049B002B05DD1A4678
:104B60004846039900F002FC0390099B002B05DDE9
:104B700021461A46484600F0F9FB04460F9B002BDD
:104B800061D02146039800F05DFC00285BDA002329
:104B90000A224846039900F045FA0B9B07F1FF38BB
:104BA0000390002B00F07781294600230A22484613
:104BB00000F038FABBF1000F05466FDC209B022B9A
:104BC00049DC6BE0149BC3F136033CE70000E03F97
:104BD00000002440089B5C1E0A9BA34209DB1C1BAF
:104BE000089B002BBFF630AF049B089A9E1A002347
:104BF0002BE70A9B0E9AE31A1A440A94049E002497
:104C0000089B0E9221E70A9C049E0B9D28E7DDF885
:104C10000C8051E70A9A039950E7CDF80C8051E7D0
:104C2000002379E7069B77E700230A9379E793D07F
:104C3000049A1C331A440492099A1E441A44099295
:104C40008AE70346F4E7089BB846002B20DC9B4626
:104C5000209B022B1EDDBBF1000F7FF4B1AD21467E
:104C60005B460522484600F0DDF9014604460398FC
:104C700000F0E8FB00287FF7A3AD5646312308F18A
:104C8000010806F8013B9FE5B846089C2546F4E775
:104C9000DDF820B00B9B002B00F00181002E05DD1C
:104CA00029463246484600F061FB05460A9B002B28
:104CB0005CD04846696800F053F9064628B90246B8
:104CC00040F2EF21804BFFF743BB2A6905F10C014D
:104CD000023292000C3000F0D7FE012231464846E5
:104CE00000F044FB2F4605460AF1010304930AEB4A
:104CF0000B030A93069B03F001030993049B2146CF
:104D0000039803F1FF3BFFF784FA0346394630333B
:104D1000069003980B9300F095FB2A4608902146D5
:104D2000484600F0ABFBC26806460B9B02BB01463F
:104D3000039800F087FB02460B9B31464846CDE9BD
:104D40000B3200F04DF9209B0C9A049E42EA0301BD
:104D5000099B19430B9B0DD1392B27D0089A002AA8
:104D600001DD069B31338BF800302EE52846B9E78C
:104D70000122E2E70899002904DB20980143099801
:104D8000014320D1002AEEDD012203994846049315
:104D900000F0ECFA2146039000F054FB0028049B3D
:104DA00002DCE0D1DA07DED5392BDAD139238BF8F2
:104DB000003033461E4616F8012C013B392A4ED0EE
:104DC00001321A7001E5002A03DD392BEED00133E0
:104DD000C9E7049A0A9902F8013C8A4228D00023C4
:104DE0000A220399484600F01DF9AF4203904FF0A4
:104DF00000034FF00A023946484607D100F012F985
:104E000007460546049B0133049377E700F00AF94F
:104E10002946074600230A22484600F003F90546C2
:104E2000F0E7BBF1000FCCBF5E46012600275644D9
:104E3000012203994846049300F098FA2146039012
:104E400000F000FB0028B4DC02D1049BDB07B0D4E7
:104E500033461E4613F8012D302AFAD0B5E49A45A0
:104E6000A8D1312308F101088AF80030ADE4249B71
:104E7000DFF858A01BB10AF10803249A13605046CA
:104E800017B0BDE8F08F209B012B7FF72EAE0E9B55
:104E90000A9301204DE6BBF1000F7FF7D9AE5646CD
:104EA00021460398FFF7B5F900F1300306F8013BFE
:104EB000A6EB0A029345B4DD00230A224846039973
:104EC00000F0B0F80390EBE7968C00081A8C00080D
:104ED00038B50546002940D051F8043C0C1F002B82
:104EE000B8BFE418FEF76AFB1C4A136833B9636065
:104EF00014602846BDE83840FEF766BBA34208D9D7
:104F0000206821188B4201BF19685B68091821606D
:104F1000EDE71A465B680BB1A342FAD91168501845
:104F2000A0420BD120680144501883421160E0D1A7
:104F300018685B68084410605360DAE702D90C23F4
:104F40002B60D6E7206821188B4201BF19685B6887
:104F50000918216063605460CBE738BD6C02002003
:104F600070B5C66904460D4676B91020FEF77CFA86
:104F70000246E06120B96B21174B184800F092FD02
:104F8000C0E901660660C660E669F36883B1E3695B
:104F9000DB6853F82500B8B9012101FA05F6721D46
:104FA0002046920000F09CFD60B1C0E901560EE081
:104FB00021220421204600F093FDE369F060DB68C4
:104FC000002BE4D1002070BD026843F825200023A7
:104FD000C0E90333F7E700BF278C0008A78C00085F
:104FE00070B5C66905460C4676B91020FEF73CFA46
:104FF0000246E86120B98F21084B094800F052FDB4
:10500000C0E901660660C6603CB1EB696268DB68B6
:1050100053F82210216043F8224070BD278C00080D
:10502000A78C00082DE9F04107460C461E460020DB
:105030000D6901F1140CDCF80030013099B202FB6B
:1050400001611E0C0B0C02FB063389B201EB03411C
:1050500085424FEA13464CF8041BECDC0EB3A36800
:10506000AB4219DC616838460131FFF779FF8046B1
:1050700028B90246BA210C4B0C4800F013FD2269F6
:1050800004F10C01023292000C3000F0FDFC2146CC
:105090003846FFF7A5FF444604EB850301355E6102
:1050A00025612046BDE8F081968C0008A78C000899
:1050B0000346B0F5803F3ABF030410200020B3F14F
:1050C000807F3CBF1B020830B3F1805F3CBF1B01F7
:1050D0000430B3F1804F3CBF9B000230002B05DB56
:1050E00013F0804F00F1010008BF202070470368D3
:1050F000024613F007000BD0D90721D4980749BF07
:105100005B089B08012013605CBF0220136070479E
:1051100099B209B910201B0CD9B209B908301B0A81
:10512000190704BF1B090430990704BF9B0802300C
:10513000D90703D45B0800F1010003D01360704766
:10514000002070472020704710B50C460121FFF762
:1051500007FF024628B940F24511044B044800F00D
:10516000A1FC01234461036110BD00BF968C0008BF
:10517000A78C00082DE9F04F17460A693B6989465C
:105180009A42A2BF3B460F4699463D69D9F810A006
:10519000BB68796805EB0A06B34285B0B8BF013138
:1051A000FFF7DEFE30B902464FF4B171404B414883
:1051B00000F078FC00F114042346002204EB860E74
:1051C000734520D307F1140809F1140108EB850594
:1051D00001EB8A030293EB1B153B23F0030304331B
:1051E0001537BD4238BF04230193029B03918B42C4
:1051F0000CD8002E03DD5EF8043D002B55D006616F
:1052000005B0BDE8F08F43F8042BD9E7B1F800A052
:10521000BAF1000F1FD0C446A14600275CF8042B4A
:10522000D9F800301FFA82FB9BB20AFB0B333B44D8
:10523000D9F80070120C3F0C0AFB027202EB134209
:105240009BB243EA024365454FEA124749F8043BE3
:10525000E4D8019BE750039B0431B3F80290B9F105
:10526000000F20D04746A4464FF0000A2368B7F845
:1052700000B0BCF802209BB209FB0B22524443EA67
:1052800002434CF8043B57F8043B4FEA134ABCF87E
:105290000030BD4209FB0A3303EB12434FEA134AC5
:1052A000E5D8019AA35004349FE7013EA1E700BF6F
:1052B000968C0008A78C00082DE9F843154612F0DB
:1052C000030207460E4607D0254C013A002354F846
:1052D0002220FFF7A7FE0646AD103DD0FC697CB941
:1052E0001020FEF7C1F80246F86128B940F2B31168
:1052F0001C4B1D4800F0D6FBC0E901440460C460AB
:10530000D7F81C80D8F808404CB940F271213846D3
:10531000FFF71AFF00230446C8F8080003604FF0A7
:105320000009EB070AD5314622463846FFF722FF2F
:10533000804631463846FFF753FE46466D100BD087
:10534000206838B9224621463846FFF713FF20600F
:10535000C0F800900446E4E73046BDE8F88300BF9B
:10536000588D0008278C0008A78C00082DE9F0470D
:105370000C46074691462369496803EB6218A36807
:105380004FEA621A08F10106B3420BDB3846FFF719
:10539000E7FD054648B902464FF4EF71274B284810
:1053A00000F080FB01315B00EEE7002300F1140107
:1053B00000F110021846534533DB20692AEAEA7AE5
:1053C00004F1140319F01F0901EB8A0103EB800CAF
:1053D0002BD08A460022C9F1200E186800FA09F085
:1053E00010434AF8040B53F8042B9C4522FA0EF2A2
:1053F000F3D8ACEB0403153B23F00303043304F1AF
:105400001500604588BF0423CA500AB108F102069E
:10541000013E384621462E61FFF7E2FD2846BDE8F1
:10542000F08742F8040F0133C5E7043953F8042B21
:105430009C4541F8042FF9D8EAE700BF968C000894
:10544000A78C000803460A69006930B5801A0ED19E
:105450001433143103EB820401EB820154F8045D30
:1054600051F8042D954203D005D24FF0FF3030BDE6
:10547000A342F3D3FBE70120F9E700002DE9F74F42
:1054800089460646114648461446FFF7DBFF051ECF
:1054900012D129463046FFF763FD024628B940F293
:1054A00037213E4B3E4800F0FDFA0123C0E90435A8
:1054B000104603B0BDE8F08FBCBF4B46A146304656
:1054C000D9F80410BABF1C4601250025FFF748FD96
:1054D000024618B940F24521304BE3E700F1140BC6
:1054E000D9F8107009F11003C5604FF0000C09F1F4
:1054F0001405D946266904F1140E05EB87080EEB56
:1055000086060193019B5EF8040B53F804AF81B249
:1055100001931FFA8AF35B1A000C6344C0EB1A4034
:1055200000EB23409BB243EA004376454FEA204C10
:1055300049F8043BE6D8331B153B23F0030315342D
:105540000433A64238BF04231D445B441E462C4648
:1055500044450ED308F10301491B21F00301033D2B
:10556000A84538BF00210B4453F8041D99B11761B9
:105570009EE7E64654F8041B1FFA81FCF444080C2D
:10558000714400EB2C4089B241EA00414FEA204CC3
:1055900046F8041BDCE7013FE6E700BF968C0008F5
:1055A000A78C00082DE97343012190469946089E77
:1055B000FFF7D6FC044630B9024640F20F31234BC8
:1055C000234800F06FFAC9F30A55C9F313030DB16C
:1055D00043F480130193B8F1000324D0684600938C
:1055E000FFF785FDDDE90012D8B1C0F1200302FA12
:1055F00003F30B43C24063610192019B002B0CBF7C
:1056000001220222A3612261ADB1A5F23345054416
:105610003560C0F13500099B1860204602B0BDE836
:1056200070836161E9E701A8FFF761FD019B012239
:1056300063612030E7E7A0F2324004EB8203306080
:105640001869FFF735FDC0EB4210E4E7968C0008BF
:10565000A78C00082DE9F0471F468E688246BE429F
:105660000C4690460B682DD8B1F90C2012F4906FBF
:1056700026D06569096905EB4505A3EB010905EB32
:10568000D5757B1C4B446D109D4238BF1D4653059C
:1056900027D52946FDF712FF064660B34A46216921
:1056A00000F0F2F9A38923F4906343F08003A3810F
:1056B00026614E4426603E466561A5EB0905A5605E
:1056C000BE4200D93E4632464146206800F0C2F94B
:1056D0000020A3689B1BA360236833442360BDE8BC
:1056E000F0872A4600F022FA06460028E0D150460C
:1056F0002169FFF7EDFB0C23CAF80030A3894FF0B6
:10570000FF3043F04003A381E9E700002DE9F04FAB
:1057100098468B8907461B060D4614469DB010D54A
:105720000B6973B94021FDF7C9FE2860286130B9C3
:105730000C233B604FF0FF301DB0BDE8F08F4023DD
:105740006B610023099320238DF8293030234FF01B
:105750000109CDF80C80DFF898818DF82A302346B6
:105760009A4613F8012B0AB1252AF9D1BAEB040B9A
:105770000BD05B46224629463846FFF76BFF0130C7
:1057800000F0A780099A5A4409929AF80030002B39
:1057900000F09F8000234FF0FF32CDE905230AF18E
:1057A000010A049307938DF853301A935446052247
:1057B00014F8011B4E48FEF71EFD049AD8B9D00616
:1057C00044BF20238DF85330110744BF2B238DF89D
:1057D00053309AF800302A2B15D0544600204FF051
:1057E0000A0C079A214611F8013B303B092B4BD993
:1057F000B0B1079214E0A0EB080309FA03F31343D6
:10580000A2460493D2E7039B191D1B680391002B4A
:10581000BBBF5B4242F0020207930793B8BF0492FA
:1058200023782E2B0AD163782A2B32D1039B0234A2
:105830001A1D1B68039243EAE3730593DFF8B4A0D3
:10584000032250462178FEF7D6FC38B14022049B53
:10585000A0EB0A00824013430134049314F8011BA7
:10586000062225488DF82810FEF7C5FC002836D002
:10587000224B1BBB039B073323F00703083303931F
:10588000099B334409936AE70C4601200CFB023262
:10589000A8E700234FF00A0C19460134059320466F
:1058A00010F8012B303A092A03D9002BC6D00591F4
:1058B000C4E7044601230CFB0121F0E703AB00938E
:1058C0002A4638460E4B04A9FDF722FF421C064625
:1058D000D6D1AB895B063FF52DAF09982CE703AB1A
:1058E00000932A463846064B04A9FEF7AFF9EDE7C8
:1058F000008D0008068D00080A8D00081137000889
:1059000055560008B1F90C20F8B5160705460C46A7
:1059100054D44B68002B02DC0B6C002B48DDE66A8C
:10592000002E45D0002312F480522F68216A2B608C
:1059300030D0626DA389590705D56368D21A636BAD
:105940000BB1236CD21A00232846E66A216AB047BD
:10595000431CA38906D129681D292BD8284ACA408F
:10596000D60727D5002262602269D904226004D5B7
:10597000421C01D12B6803B96065616B2F60B9B11E
:1059800004F14403994202D02846FFF7A1FA00230C
:1059900063630DE001232846B0470246501CC9D17D
:1059A0002B68002BC6D01D2B01D0162B1DD12F60CC
:1059B000002021E043F040031BB21AE00F69002FE2
:1059C000F6D0930718BF00230E6808BF4B69F61B7B
:1059D0000F608B60002EEBDD33463A462846216A85
:1059E000D4F828C0E047002807DCB4F90C3043F0B5
:1059F00040034FF0FF30A381F8BD0744361AE9E7B2
:105A00000100402038B50B6905460C4613B9002546
:105A1000284638BD18B1036A0BB9FEF7C1FAB4F9CC
:105A20000C30002BF3D0626ED00704D4990502D459
:105A3000A06DFEF7DEFB28462146FFF763FF636E8D
:105A40000546DA07E4D4A3899B05E1D4A06DFEF7EF
:105A5000D1FBDDE7884210B501EB020402D9844294
:105A6000234607D8431EA14208D011F8012B03F8A2
:105A7000012FF8E7014602448A4200D110BD13F815
:105A8000014D02F8014DF7E70A44914200F1FF335E
:105A900000D1704710B511F8014B914203F8014F46
:105AA000F9D110BD1FB514461A46094B05461B68AF
:105AB000D8684CB1074BCDE9013400912B4606491B
:105AC00000F070F800F080F8044B1C46F3E700BFCC
:105AD000300000201B8D0008288D0008568D00081E
